S0130000755461736B6572426F6F742E737265639E
S1130000FCFF02204D07000000F002F800F004FAA3
S11300100CA030C8083824182D18A246671EAB4619
S113002054465D46AC4201D100F0F6F97E460F3EDF
S11300300FCCB6460126334200D0FB1AA246AB468B
S1130040334318474000000060000000103A02D318
S113005078C878C1FAD8520701D330C830C101D565
S113006004680C607047000000230024002500266B
S1130070103A01D378C1FBD8520700D330C100D560
S11300800B607047A4000000C0F0FF1F1C000000BC
S11300904C000000C0000000DCF0FF1F9C000000CA
S11300A068000000000000000000000000000000E4
S11300B0000000008021017001780906FCD570471A
S11304000000000000000000FFFFFFFFBE03FFFF2D
S11304101FB51FBD10B510BD00F054FA1146FFF70B
S1130420F7FF00F093F900F06CFA03B4FFF7F2FF62
S113043003BC00F073FA000038B504460422694690
S113044000F07CF90099002907D0481C04D06648C4
S1130450001B884204D3084638BD0120000338BD80
S1130460009038BDF1B5FFB0FFB0032082B05F4CFF
S11304704004FFF7E1FF0546FFA841685B480822F6
S1130480083800F05BF9FFA84068C1880A0A09022D
S11304901143C18081880A0A0902114381800168DD
S11304A00B021B0E0A0E1B0213430A04120E120443
S11304B01A430E0616430660FFA840684C4980881C
S11304C088422BD1083DAE4228D1002E26D00120EF
S11304D04004864222D8C5110027012080028642AA
S11304E000D2B5B22A466946204600F027F92A46CA
S11304F06946384600F08CF864190746761BECD13F
S113050006223C4900F084F8FFA94968C988814261
S113051004D101207FB07FB003B0F0BD0020F9E723
S1130520F0B5FFB0FFB085B06846FFF79BFF002829
S113053050D0012149044E11304600F0FEF8B410A9
S11305402A4F009D11E001208002854200D2ACB206
S1130550224602A9384600F0F1F8224602A93046A4
S113056000F0E0F83F1936192D1B002DEBD10022C5
S11305701146104600F0D6F80124A4020027A60074
S1130580009D11E001208002854200D2ACB22246D7
S113059002A9304600F0D2F8224602A9384600F0FB
S11305A037F8361907462D1B002DEBD106221149C9
S11305B0384600F02DF86946C988814208D10324E1
S11305C064042046FFF738FF411D204600F0B5F8CB
S11305D000F0B8F80120000300F014F87FB07FB0F9
S11305E0002005B0F0BD0000FBFF07000D00060071
S11305F0341200002A0900000148014A7047000033
S113060078F1FF1F01688D46406880477047704746
S11306100EE0030A000203430878584003061B0F48
S113062043401803584083B21806C00C5840491C74
S11306301346521E92B2002BEBD1704708B50E221E
S113064004E0009200994B1E0093FBD2401EF8D2A6
S113065008BD10B5034601E019705B1C521EFBD2A5
S113066010BD10B5034603E00C780470401C491C0F
S1130670521EF9D2184610BDF8B5854D8446286837
S113068000280FD12846103000234408814E64000E
S1130690278858005B1CA41C37521E2BF8DB7D48AE
S11306A0401C28607C4C20780006FCD5207840064D
S11306B0400F01D0702020706046E071072801D0FF
S11306C009280BD1080CA071080A607160462171D9
S11306D0072803D11068A0605068E06029682046AC
S11306E0884720783121084000D00120F8BD00223D
S11306F011464420C0E770B5040B2403001B4618C0
S113070001252D03002221460920FFF7B5FF00280B
S113071001D0012070BDAE4202D96419761BF1E705
S1130720002070BD0EB500900192684600F066F896
S11307300EBD0B460146184693E7DCE70B4601461F
S113074018468EE756495548C860FEE7F8B556483E
S113075054490022C1815549C181FF21D33101800F
S11307605348022101734921524B89045960842161
S1130770017050497D25ED0040390124A40403266D
S11307804D4F06E0521CAA4203DB4B6B23434B63E1
S11307903E7183791B079B0F022BF3D1B0210170AB
S11307A0332101715A21417181798906FCD58179FE
S11307B04906FCD52821017081790907890F03298D
S11307C0FAD13E4C01273E4E656801E0002F07D068
S11307D0E068A26860280CD028462168FFF741FF32
S11307E0A06810344519B442F0D1FFF799FE0020F7
S11307F0F8BD00212846FFF72CFFF1E7F8B50F00FC
S11308002349456828D00068C208D2004607760FFD
S11308104A601F48103000900820841BAC4200D965
S11308202C461B4822460830801984463946FFF777
S113083018FF604600993F192D1B001988421ED3EA
S1130840134A134C0026083207206168FFF714FF8F
S113085000280AD0701EF8BD48684207520F14D011
S11308600826C008C0004860D3E760680822083042
S113087060600748FF210830FFF7EBFE03E00448FF
S1130880416809194160002DC6D10020F8BD00005F
S1130890C0F0FF1FDCF0FF1F000002400400FA0557
S11308A000ED00E020C500000020054028D900002C
S11308B0004006404080044040210740840000007E
S11308C0A4000000754600F025F8AE460500694610
S11308D05346C008C000854618B020B5FFF78CFE0B
S11308E060BC00274908B6460026C0C5C0C5C0C5BF
S11308F0C0C5C0C5C0C5C0C5C0C5403D49008D46C2
S1130900704710B50446C046C0462046FFF78DFD2B
S113091010BD00000048704718F1FF1F014918205E
S1130920ABBEFEE7260002007047A748B653112469
S903074DA8
